:020000040800F2
:2000000000500020E53D0008FD3C0008093D00080F3D0008153D00081B3D000800000000A9
:20002000000000000000000000000000213D00082D3D000800000000393D0008453D0008E0
:200040002D3E00082D3E00082D3E00082D3E00082D3E00082D3E00082D3E00082D3E000808
:200060002D3E00082D3E00082D3E00082D3E00082D3E00082D3E00082D3E0008553D0008C1
:200080002D3E00082D3E00082D3E00082D3E00082D3E00082D3E00082D3E00082D3E0008C8
:2000A0002D3E00082D3E00082D3E00082D3E0008693D00082D3E00082D3E00082D3E00086D
:2000C0002D3E00082D3E00082D3E00082D3E00082D3E00085D3900082D3E00082D3E00085D
:2000E0002D3E00082D3E00082D3E00080000000000000000000000000000000000000000A7
:2001000000000000000000005FF808F110B5054C237833B9044B13B10448AFF3008001234D
:20012000237010BD1800002000000000BC3E000808B5034B1BB103490348AFF3008008BDD0
:20014000000000001C000020BC3E0008034613F8012B002AFBD1181A0138704780B500AFE5
:20016000084A084B1B6843F010031360032000F03FF9002000F008F803F08AFC0023184649
:2001800080BD00BF0020024080B582B000AF7860124B1A68124B1B7819464FF47A73B3FB07
:2001A000F1F3B2FBF3F3184600F057F90346002B01D001230EE07B680F2B0AD800227968D1
:2001C0004FF0FF3000F01FF9064A7B681360002300E0012318460837BD4680BD14000020CB
:2001E000040000200000002080B400AF054B1B781A46054B1B681344034A136000BFBD46E9
:2002000080BC7047040000205004002080B400AF024B1B681846BD4680BC704750040020D8
:2002200080B584B000AF7860FFF7F0FFB8607B68FB60FB68B3F1FF3F05D0094B1B781A4632
:20024000FB681344FB6000BFFFF7E0FF0246BB68D21AFB689A42F7D300BF1037BD4680BD4F
:200260000400002080B485B000AF78607B6803F00703FB600C4BDB68BB60BA684FF6FF0311
:200280001340BB60FB681A02BB68134343F0BF6343F40033BB60044ABB68D36000BF143770
:2002A000BD4680BC704700BF00ED00E080B400AF044BDB681B0A03F007031846BD4680BC88
:2002C000704700BF00ED00E080B483B000AF0346FB71084997F907305B09FA7902F01F020E
:2002E000012000FA02F241F8232000BF0C37BD4680BC704700E100E080B483B000AF03465B
:200300003960FB7197F90730002B0BDA0D49FB7903F00F03043B3A68D2B21201D2B20B44E7
:200320001A7609E0084997F907303A68D2B21201D2B20B4483F8002300BF0C37BD4680BC41
:20034000704700BF00ED00E000E100E080B489B000AFF860B9607A60FB6803F00703FB6176
:20036000FB69C3F10703042B28BF0423BB61FB690433062B02D9FB69033B00E000237B61DA
:200380000122BB6902FA03F35A1EBB681A407B699A4001217B6901FA03F3591E7B680B40D5
:2003A000134318462437BD4680BC704780B582B000AF78607B68013BB3F1807F01D3012390
:2003C0000FE00A4A7B68013B53600F214FF0FF30FFF792FF054B00229A60044B07221A6085
:2003E000002318460837BD4680BD00BF10E000E080B582B000AF78607868FFF733FF00BFB9
:200400000837BD4680BD80B586B000AF0346B9607A60FB7300237B61FFF748FF78617A68A2
:20042000B9687869FFF792FF024697F90F3011461846FFF761FF00BF1837BD4680BD80B58E
:2004400082B000AF0346FB7197F907301846FFF73BFF00BF0837BD4680BD80B582B000AF5D
:2004600078607868FFF7A2FF034618460837BD4680BD000080B483B000AF78607B68042B07
:2004800006D1094A084B1B6843F00403136005E0054A054B1B6823F00403136000BF0C3719
:2004A000BD4680BC704700BF10E000E080B500AF00F002F800BF80BD80B400AF00BFBD4648
:2004C00080BC704780B485B000AF78600023FB607B68002B01D101234FE07B681B681A46C2
:2004E000284B1344284AA2FB03231B099A007B681A647B68254ADA637B68022283F821208C
:200500007B681B681B68FB60FB6823F47F5323F03003FB607B685A687B689B681A437B68DF
:20052000DB681A437B681B691A437B685B691A437B689B691A437B68DB691343FA681343DA
:20054000FB607B681B68FA681A607B6800229A627B680022DA627B6800221A637B68002235
:200560005A637B6800229A637B68012283F821207B68002283F82020002318461437BD466B
:2005800080BC7047F8FFFDBFCDCCCCCC0000024080B586B000AFF860B9607A603B6000231F
:2005A000FB75FB6893F82030012B01D102234AE0FB68012283F82020FB6893F82130012B94
:2005C0003AD1FB68022283F82120FB6800229A63FB681B68FA681268126822F001021A6080
:2005E0003B687A68B968F86800F044F9FB68DB6A002B08D0FB681B68FA681268126842F0AF
:200600000E021A600FE0FB681B68FA681268126822F004021A60FB681B68FA681268126857
:2006200042F00A021A60FB681B68FA681268126842F001021A6005E0FB68002283F82020F2
:200640000223FB75FB7D18461837BD4680BD000080B584B000AF78607B68DB6B1B68FB60A9
:200660007B681B681B68BB607B681B6C04229A40FB681340002B55D0BB6803F00403002BBE
:2006800050D07B681B681B6803F02003002B07D17B681B687A681268126822F004021A606A
:2006A0006D4A7B681B6819466C4B99422ED07B681B6819466A4B994226D07B681B6819461E
:2006C000684B99421DD07B681B681946664B994214D07B681B681946644B99420BD07B685D
:2006E0001B681946624B994202D14FF480030EE04FF080630BE04FF4802308E04FF4804328
:2007000005E04FF4806302E0402300E0042353607B68DB6A002B00F09A807B68DB6A78686A
:20072000984794E07B681B6C02229A40FB681340002B5CD0BB6803F00203002B57D07B68A1
:200740001B681B6803F02003002B0BD17B681B687A681268126822F00A021A607B6801229C
:2007600083F821203C4A7B681B6819463B4B99422ED07B681B681946394B994226D07B6816
:200780001B681946374B99421DD07B681B681946354B994214D07B681B681946334B99420B
:2007A0000BD07B681B681946314B994202D14FF400130EE04FF000730BE04FF4003308E030
:2007C0004FF4005305E04FF4007302E0202300E0022353607B68002283F820207B689B6A63
:2007E000002B34D07B689B6A786898472FE07B681B6C08229A40FB681340002B28D0BB68AA
:2008000003F00803002B23D07B681B687A681268126822F00E021A607B68DB6B7A68126C5B
:20082000012101FA02F25A607B6801229A637B68012283F821207B68002283F820207B6885
:200840001B6B002B04D07B681B6B7868984700BF00BF1037BD4680BD00000240080002405A
:200860001C0002403000024044000240580002406C00024080B485B000AFF860B9607A6077
:200880003B60FB68DB6BFA68126C012101FA02F25A60FB681B683A685A60FB685B68102BC6
:2008A00008D1FB681B687A689A60FB681B68BA68DA6007E0FB681B68BA689A60FB681B688C
:2008C0007A68DA6000BF1437BD4680BC7047000080B48BB000AF786039600023FB610023CB
:2008E000BB6100237B6100233B6200233B6100237B6227E101227B6A02FA03F3FB613B685D
:200900001A68FB691340BB61BA69FB699A4240F016813B685B68122B34D0122B0DD8022B62
:200920002BD0022B04D8002B31D0012B1CD048E0032B43D0112B1BD043E0874A934226D020
:20094000854A934206D8854A934220D0844A93421DD036E0834A934219D0834A934216D0C8
:20096000824A934213D02CE03B68DB683B6228E03B68DB6804333B6223E03B68DB6808337E
:200980003B621EE03B68DB680C333B6219E03B689B68002B02D104233B6212E03B689B6801
:2009A000012B05D108233B627B68FA691A6108E008233B627B68FA695A6102E000233B6259
:2009C00000BFBB69FF2B01D87B6801E07B680433FB60BB69FF2B02D87B6A9B0002E07B6A89
:2009E000083B9B003B61FB681A680F213B6901FA03F3DB431A40396A3B6901FA03F31A43C6
:200A0000FB681A603B685B6803F08053002B00F09680574A564B9B6943F001039361544B8C
:200A20009B6903F00103BB60BB68524A7B6A9B08023352F823307B617B6A03F003039B0032
:200A40000F2202FA03F3DB437A6913407B617B68494A934213D07B68484A93420DD07B680B
:200A6000474A934207D07B68464A934201D1032306E0042304E0022302E0012300E00023DA
:200A80007A6A02F00302920093407A6913437B6138497B6A9B0802337A6941F823203B68C1
:200AA0005B6803F48033002B06D03749364B1A68BB6913430B6006E03349334B1A68BB69DA
:200AC000DB4313400B603B685B6803F40033002B06D02D492C4B5A68BB6913434B6006E0EF
:200AE0002949294B5A68BB69DB4313404B603B685B6803F48013002B06D02349224B9A6842
:200B0000BB6913438B6006E01F491F4B9A68BB69DB4313408B603B685B6803F40013002B9B
:200B200006D01949184BDA68BB691343CB6006E01549154BDA68BB69DB431340CB607B6AA8
:200B400001337B627B6A0F2B7FF6D4AE00BF2C37BD4680BC704700BF000021100000111045
:200B600000001210000031100000321000002210001002400000014000080140000C014075
:200B800000100140001401400004014080B483B000AF78600B467B8013467B707B78002BCE
:200BA00003D07A887B681A6103E07B881A047B681A6100BF0C37BD4680BC704780B584B03F
:200BC00000AF78607B68002B01D101232BE07B681B684CF6CC421A607B681B6845F255520B
:200BE0001A607B681B687A6852685A607B681B687A6892689A60FFF709FBF86008E0FFF753
:200C000005FB0246FB68D31A302B01D903230AE07B681B68DB68002BF1D17B681B684AF6BB
:200C2000AA221A60002318461037BD4680BD80B483B000AF78607B681B684AF6AA221A608C
:200C4000002318460C37BD4680BC704780B586B000AF786000233B617B681B6803F00103CC
:200C6000002B00F08780924B5B6803F00C03042B0CD08F4B5B6803F00C03082B12D18C4B19
:200C80005B6803F48033B3F5803F0BD1884B1B6803F40033002B6CD07B685B68002B68D1B3
:200CA00001232DE27B685B68B3F5803F06D1804A7F4B1B6843F4803313602EE07B685B68F5
:200CC000002B0CD17A4A7A4B1B6823F480331360774A774B1B6823F4802313601DE07B68B0
:200CE0005B68B3F5A02F0CD1714A714B1B6843F4802313606E4A6E4B1B6843F48033136045
:200D00000BE06B4A6A4B1B6823F480331360684A674B1B6823F4802313607B685B68002BD9
:200D200013D0FFF773FA386108E0FFF76FFA02463B69D31A642B01D90323E1E15C4B1B6839
:200D400003F40033002BF0D014E0FFF75FFA386108E0FFF75BFA02463B69D31A642B01D92D
:200D60000323CDE1524B1B6803F40033002BF0D100E000BF7B681B6803F00203002B63D00E
:200D80004B4B5B6803F00C03002B0BD0484B5B6803F00C03082B1CD1454B5B6803F480337D
:200DA000002B16D1424B1B6803F00203002B05D07B681B69012B01D00123A1E13C493C4B03
:200DC0001B6823F0F8027B685B69DB0013430B603AE07B681B69002B20D0364B01221A6086
:200DE000FFF714FA386108E0FFF710FA02463B69D31A022B01D9032382E12D4B1B6803F017
:200E00000203002BF0D02A49294B1B6823F0F8027B685B69DB0013430B6015E0254B0022A1
:200E20001A60FFF7F3F9386108E0FFF7EFF902463B69D31A022B01D9032361E11C4B1B68C5
:200E400003F00203002BF0D17B681B6803F00803002B39D07B689B69002B19D0164B012297
:200E60001A60FFF7D3F9386108E0FFF7CFF902463B69D31A022B01D9032341E10C4B5B6AB3
:200E800003F00203002BF0D0012000F0CBFA1BE0094B00221A60FFF7B9F938610EE0FFF789
:200EA000B5F902463B69D31A022B07D9032327E1001002400000424280044242924B5B6AF0
:200EC00003F00203002BEAD17B681B6803F00403002B00F0A6800023FB758B4BDB6903F0F3
:200EE0008053002B0DD1884A874BDB6943F08053D361854BDB6903F08053FB60FB68012338
:200F0000FB75824B1B6803F48073002B18D17F4A7E4B1B6843F480731360FFF777F9386162
:200F200008E0FFF773F902463B69D31A642B01D90323E5E0754B1B6803F48073002BF0D022
:200F40007B68DB68012B06D16F4A6F4B1B6A43F0010313622DE07B68DB68002B0CD16A4AD5
:200F6000694B1B6A23F001031362674A664B1B6A23F0040313621CE07B68DB68052B0CD107
:200F8000614A614B1B6A43F0040313625E4A5E4B1B6A43F0010313620BE05B4A5A4B1B6A8A
:200FA00023F001031362584A574B1B6A23F0040313627B68DB68002B15D0FFF727F9386168
:200FC0000AE0FFF723F902463B69D31A41F28832934201D9032393E04B4B1B6A03F00203F4
:200FE000002BEED014E0FFF711F938610AE0FFF70DF902463B69D31A41F28832934201D920
:2010000003237DE0404B1B6A03F00203002BEED1FB7D012B05D13C4A3B4BDB6923F08053AB
:20102000D3617B68DB69002B69D0374B5B6803F00C03082B61D07B68DB69022B46D1344B5C
:2010400000221A60FFF7E2F8386108E0FFF7DEF802463B69D31A022B01D9032350E02A4B2C
:201060001B6803F00073002BF0D17B681B6AB3F5803F08D12449244B5B6823F400327B6828
:201080009B6813434B6020481F4B5B6823F474127B68196A7B685B6A0B43134343601C4B5E
:2010A00001221A60FFF7B2F8386108E0FFF7AEF802463B69D31A022B01D9032320E0124B73
:2010C0001B6803F00073002BF0D018E0104B00221A60FFF79BF8386108E0FFF797F8024676
:2010E0003B69D31A022B01D9032309E0064B1B6803F00073002BF0D101E0012300E000231B
:2011000018461837BD4680BD00100240007000406000424280B584B000AF78603960002350
:20112000FB60724B1B6803F007023B689A4210D26E496E4B1B6823F007023B6813430B6044
:201140006A4B1B6803F007023B689A4201D00123C8E07B681B6803F00203002B08D0644931
:20116000634B5B6823F0F0027B689B6813434B607B681B6803F00103002B6AD07B685B68AA
:20118000012B07D15A4B1B6803F40033002B15D10123A7E07B685B68022B07D1544B1B6870
:2011A00003F00073002B09D101239BE0504B1B6803F00203002B01D1012393E04C494C4B4F
:2011C0005B6823F003027B685B6813434B60FFF71DF8F8607B685B68012B12D10AE0FFF795
:2011E00015F80246FB68D31A41F28832934201D9032377E03E4B5B6803F00C03042BEED1F5
:2012000027E07B685B68022B1DD10AE0FEF7FEFF0246FB68D31A41F28832934201D90323D0
:2012200060E0334B5B6803F00C03082BEED110E0FEF7ECFF0246FB68D31A41F2883293420F
:2012400001D903234EE02A4B5B6803F00C03002BEED1264B1B6803F007023B689A4210D9E4
:201260002249224B1B6823F007023B6813430B601E4B1B6803F007023B689A4201D0012337
:2012800030E07B681B6803F00403002B08D01849174B5B6823F4E0627B68DB6813434B60D5
:2012A0007B681B6803F00803002B09D01049104B5B6823F460527B681B69DB0013434B6043
:2012C00000F01CF801460A4B5B681B0903F00F03084AD35C21FA03F3074A13600020FEF717
:2012E00053FF002318461037BD4680BD0020024000100240C04100081400002090B48AB025
:2013000000AF2A4B3C1D0FCB84E80F00284B1B883B800023FB610023BB6100237B62002349
:201320007B6100233B62234B5B68FB61FB6903F00C03042B02D0082B03D02DE01E4B3B6204
:201340002DE0FB699B0C03F00F0307F12802134413F8243C7B61FB6903F48033002B13D094
:20136000144B5B685B0C03F0010307F12802134413F8283CBB617B690F4A02FB03F2BB6996
:20138000B2FBF3F37B6204E07B690C4A02FB03F37B627B6A3B6202E0074B3B6200BF3B6A38
:2013A00018462837BD4690BC704700BFD43E0008E43E00080010024000127A0000093D0043
:2013C00080B400AF024B1B681846BD4680BC70471400002080B500AFFFF7F2FF0146054B70
:2013E0005B681B0A03F00703034AD35C21FA03F3184680BD00100240D041000880B500AF91
:20140000FFF7DEFF0146054B5B68DB0A03F00703034AD35C21FA03F3184680BD0010024043
:20142000D041000880B485B000AF78600A4B1B680A4AA2FB03235B0A7A6802FB03F3FB601F
:2014400000BFFB685A1EFA60002BF9D100BF1437BD4680BC704700BF14000020D34D62101E
:2014600080B582B000AF78607B68002B01D101231DE07B6893F83D30DBB2002B06D17B6830
:20148000002283F83C20786802F060FB7B68022283F83D207B681A687B6804331946104613
:2014A00000F068FB7B68012283F83D20002318460837BD4680BD80B483B000AF78607B682A
:2014C000022283F83D207B681B687A681268126842F001021A607B68012283F83D20002324
:2014E00018460C37BD4680BC704780B483B000AF78607B681B687A681268D26842F0010236
:20150000DA607B681B687A681268126842F001021A60002318460C37BD4680BC704780B5B7
:2015200082B000AF78607B68002B01D101231DE07B6893F83D30DBB2002B06D17B68002282
:2015400083F83C20786800F015F87B68022283F83D207B681A687B6804331946104600F0D4
:2015600009FB7B68012283F83D20002318460837BD4680BD80B483B000AF786000BF0C3799
:20158000BD4680BC7047000080B582B000AF786039607B681B6801223968184600F095FDC4
:2015A0007B681B680B4A934207D17B681B687A681268526C42F400425A647B681B687A68C5
:2015C0001268126842F001021A60002318460837BD4680BD002C014080B582B000AF78600D
:2015E0007B681B681B6903F00203022B22D17B681B68DB6803F00203022B1BD17B681B68C9
:201600006FF002021A617B6801221A777B681B689B6903F00303002B03D0786800F08EFA9C
:2016200005E0786800F081FA786800F090FA7B6800221A777B681B681B6903F00403042B77
:2016400022D17B681B68DB6803F00403042B1BD17B681B686FF004021A617B6802221A77FB
:201660007B681B689B6903F44073002B03D0786800F064FA05E0786800F057FA786800F054
:2016800066FA7B6800221A777B681B681B6903F00803082B22D17B681B68DB6803F008039F
:2016A000082B1BD17B681B686FF008021A617B6804221A777B681B68DB6903F00303002B59
:2016C00003D0786800F03AFA05E0786800F02DFA786800F03CFA7B6800221A777B681B6855
:2016E0001B6903F01003102B22D17B681B68DB6803F01003102B1BD17B681B686FF0100285
:201700001A617B6808221A777B681B68DB6903F44073002B03D0786800F010FA05E07868BF
:2017200000F003FA786800F012FA7B6800221A777B681B681B6903F00103012B0ED17B687B
:201740001B68DB6803F00103012B07D17B681B686FF001021A61786802F054F97B681B6800
:201760001B6903F08003802B0ED17B681B68DB6803F08003802B07D17B681B686FF08002FC
:201780001A61786800F010FD7B681B681B6903F04003402B0ED17B681B68DB6803F04003A8
:2017A000402B07D17B681B686FF040021A61786800F0D6F97B681B681B6903F02003202B7A
:2017C0000ED17B681B68DB6803F02003202B07D17B681B686FF020021A61786800F0DBFC3F
:2017E00000BF0837BD4680BD80B584B000AFF860B9607A60FB6893F83C30012B01D10223CB
:20180000B4E0FB68012283F83C20FB68022283F83D207B680C2B00F29F8001A252F823F04D
:201820005518000859190008591900085919000895180008591900085919000859190008A2
:20184000D718000859190008591900085919000817190008FB681B68B968184600F0F0F9AD
:20186000FB681B68FA681268926942F008029A61FB681B68FA681268926922F004029A61A4
:20188000FB681B68FA6812689169BA6812690A439A6162E0FB681B68B968184600F03CFADA
:2018A000FB681B68FA681268926942F400629A61FB681B68FA681268926922F480629A6128
:2018C000FB681B68FA6812689169BA68126912020A439A6141E0FB681B68B968184600F0DD
:2018E0008BFAFB681B68FA681268D26942F00802DA61FB681B68FA681268D26922F00402DA
:20190000DA61FB681B68FA681268D169BA6812690A43DA6121E0FB681B68B968184600F015
:20192000DBFAFB681B68FA681268D26942F40062DA61FB681B68FA681268D26922F480620D
:20194000DA61FB681B68FA681268D169BA68126912020A43DA6100E000BFFB68012283F877
:201960003D20FB68002283F83C20002318461037BD4680BD80B584B000AF786039600023FA
:20198000FB607B6893F83C30012B01D10223C8E07B68012283F83C207B68022283F83D208B
:2019A0007B681B689B68FB60FB6823F07703FB60FB6823F47F43FB607B681B68FA689A60BF
:2019C0003B681B68402B77D0402B0ED8102B00F08A80102B02D8002B7ED099E0202B00F067
:2019E0008980302B00F08D8092E0702B16D0702B04D8502B40D0602B4ED089E0B3F5805FF8
:201A000003D0B3F5005F24D082E07B681B687A681268926822F007029A6079E07B68186809
:201A20003B6899683B685A683B68DB6800F02CFB7B681B689B68FB60FB6823F07703FB6091
:201A4000FB6843F07703FB607B681B68FA689A605EE07B6818683B6899683B685A683B680C
:201A6000DB6800F011FB7B681B687A681268926842F480429A604BE07B6818683B68596887
:201A80003B68DB681A4600F07BFA7B681B685021184600F0DAFA3BE07B6818683B685968C0
:201AA0003B68DB681A4600F09DFA7B681B686021184600F0CAFA2BE07B6818683B6859688E
:201AC0003B68DB681A4600F05BFA7B681B684021184600F0BAFA1BE07B681B6800211846D2
:201AE00000F0B3FA14E07B681B681021184600F0ACFA0DE07B681B682021184600F0A5FA49
:201B000006E07B681B683021184600F09EFA00BF7B68012283F83D207B68002283F83C20C9
:201B2000002318461037BD4680BD80B483B000AF786000BF0C37BD4680BC704780B483B050
:201B400000AF786000BF0C37BD4680BC704780B483B000AF786000BF0C37BD4680BC704720
:201B600080B483B000AF786000BF0C37BD4680BC7047000080B485B000AF786039600023D3
:201B8000FB607B681B68FB607B682A4A93420BD07B68B3F1804F07D07B68274A934203D0F9
:201BA0007B68264A934208D1FB6823F07003FB603B685B68FA681343FB607B681D4A934248
:201BC0000BD07B68B3F1804F07D07B681A4A934203D07B68194A934208D1FB6823F44073ED
:201BE000FB603B68DB68FA681343FB60FB6823F08003FB603B685B69FA681343FB607B68E0
:201C0000FA681A603B689A687B68DA623B681A687B689A627B68074A934203D13B681A691D
:201C20007B681A637B6801225A6100BF1437BD4680BC7047002C014000040040000800408A
:201C400080B487B000AF786039600023FB6000237B6100233B617B681B6A23F001027B685C
:201C60001A627B681B6A7B617B685B683B617B689B69FB60FB6823F07003FB60FB6823F066
:201C80000303FB603B681B68FA681343FB607B6923F002037B613B689B687A6913437B6117
:201CA0007B681C4A93420CD17B6923F008037B613B68DB687A6913437B617B6923F0040352
:201CC0007B617B68134A934211D13B6923F480733B613B6923F400733B613B685B693A6913
:201CE00013433B613B689B693A6913433B617B683A695A607B68FA689A613B685A687B68EE
:201D00005A637B687A691A6200BF1C37BD4680BC704700BF002C014080B487B000AF78609E
:201D200039600023FB6000237B6100233B617B681B6A23F010027B681A627B681B6A7B619E
:201D40007B685B683B617B689B69FB60FB6823F4E043FB60FB6823F44073FB603B681B6859
:201D60001B02FA681343FB607B6923F020037B613B689B681B017A6913437B617B681D4A1C
:201D800093420DD17B6923F080037B613B68DB681B017A6913437B617B6923F040037B610D
:201DA0007B68144A934213D13B6923F480633B613B6923F400633B613B685B699B003A6990
:201DC00013433B613B689B699B003A6913433B617B683A695A607B68FA689A613B685A6855
:201DE0007B689A637B687A691A6200BF1C37BD4680BC7047002C014080B487B000AF78605A
:201E000039600023FB6000237B6100233B617B681B6A23F480727B681A627B681B6A7B61D9
:201E20007B685B683B617B68DB69FB60FB6823F07003FB60FB6823F00303FB603B681B689D
:201E4000FA681343FB607B6923F400737B613B689B681B027A6913437B617B681D4A93422E
:201E60000DD17B6923F400637B613B68DB681B027A6913437B617B6923F480637B617B6895
:201E8000144A934213D13B6923F480533B613B6923F400533B613B685B691B013A691343DB
:201EA0003B613B689B691B013A6913433B617B683A695A607B68FA68DA613B685A687B6826
:201EC000DA637B687A691A6200BF1C37BD4680BC704700BF002C014080B487B000AF78605D
:201EE000396000233B610023FB6000237B617B681B6A23F480527B681A627B681B6AFB609A
:201F00007B685B687B617B68DB693B613B6923F4E0433B613B6923F440733B613B681B68D2
:201F20001B023A6913433B61FB6823F40053FB603B689B681B03FA681343FB607B680F4AB4
:201F4000934209D17B6923F480437B613B685B699B017A6913437B617B687A695A607B68BD
:201F60003A69DA613B685A687B681A647B68FA681A6200BF1C37BD4680BC7047002C014087
:201F800080B487B000AFF860B9607A6000237B6100233B61FB681B6A3B61FB681B6A23F09F
:201FA0000102FB681A62FB689B697B617B6923F0F0037B617B681B017A6913437B613B697E
:201FC00023F00A033B613A69BB6813433B61FB687A699A61FB683A691A6200BF1C37BD46B5
:201FE00080BC704780B487B000AFF860B9607A6000237B6100233B61FB681B6A23F01002BE
:020000040800F2
:20200000FB681A62FB689B697B61FB681B6A3B617B6923F470437B617B681B037A69134356
:202020007B613B6923F0A0033B61BB681B013A6913433B61FB687A699A61FB683A691A6237
:2020400000BF1C37BD4680BC704780B485B000AF78600B467B800023FB607B689B68FB607D
:20206000FB6823F07003FB607B8843F007039BB21A46FB681343FB607B68FA689A6000BF1D
:202080001437BD4680BC704780B487B000AFF860B9607A603B6000237B61FB689B687B61BE
:2020A0007B6923F47F437B613B681A027B681A43BB6813437A6913437B61FB687A699A60BA
:2020C00000BF1C37BD4680BC704780B487B000AFF860B9607A6000237B610122BB6802FA52
:2020E00003F37B61FB681A6A7B69DB431A40FB681A62FB681A6A7968BB6801FA03F31A43B3
:20210000FB681A6200BF1C37BD4680BC704780B483B000AF786039607B6893F83C30012B4B
:2021200001D1022332E07B68012283F83C207B68022283F83D207B681B687A68126852685E
:2021400022F070025A607B681B687A68126851683A6812680A435A607B681B687A681268E1
:20216000926822F080029A607B681B687A68126891683A6852680A439A607B68012283F8F8
:202180003D207B68002283F83C20002318460C37BD4680BC704780B483B000AF786000BF9F
:2021A0000C37BD4680BC704780B483B000AF786000BF0C37BD4680BC704780B582B000AFEA
:2021C00078607B68002B01D101233FE07B6893F83930DBB2002B06D17B68002283F83820C6
:2021E000786801F049FD7B68242283F839207B681B687A681268D26822F40052DA6078684D
:2022000000F028F87B681B687A681268126922F490421A617B681B687A681268526922F07F
:202220002A025A617B681B687A681268D26842F40052DA607B680022DA637B68202283F817
:2022400039207B68202283F83A20002318460837BD4680BDF0B585B000AF78600023FB604C
:202260007B681B687A681268126922F440517A68D2680A431A617B689A687B681B691A43ED
:202280007B685B691343FA681343FB607B681A687B681B68DB6823F4B05323F00C03F96883
:2022A0000B43D3607B681B687A681268526922F440717A6892690A435A617B681B686F4A55
:2022C00093426BD17B681C68FFF798F8024613469B0013449A001A447B685B689B00B2FB87
:2022E000F3F3674AA2FB03235B091D01FFF786F8024613469B0013449A001A447B685B685D
:202300009B00B2FBF3F6FFF779F8024613469B0013449A001A447B685B689B00B2FBF3F3C6
:20232000574AA2FB03235B09642202FB03F3F31A1B013233524AA2FB03235B0903F0F00325
:202340001D44FFF75BF8024613469B0013449A001A447B685B689B00B2FBF3F6FFF74EF835
:20236000024613469B0013449A001A447B685B689B00B2FBF3F3424AA2FB03235B096422C5
:2023800002FB03F3F31A1B0132333D4AA2FB03235B0903F00F032B44A3606AE07B681C68E6
:2023A000FFF718F8024613469B0013449A001A447B685B689B00B2FBF3F3314AA2FB03237A
:2023C0005B091D01FFF706F8024613469B0013449A001A447B685B689B00B2FBF3F6FEF730
:2023E000F9FF024613469B0013449A001A447B685B689B00B2FBF3F3214AA2FB03235B09F4
:20240000642202FB03F3F31A1B0132331C4AA2FB03235B0903F0F0031D44FEF7DBFF0246CA
:2024200013469B0013449A001A447B685B689B00B2FBF3F6FEF7CEFF024613469B0013442D
:202440009A001A447B685B689B00B2FBF3F30C4AA2FB03235B09642202FB03F3F31A1B0191
:202460003233074AA2FB03235B0903F00F032B44A36000BF1437BD46F0BD00BF0038014016
:202480001F85EB5180B500AF074B00221A7000F041F8054B01221A7000F03CF8024B0022C1
:2024A0001A7000BF80BD00BF3400002080B400AF074B1B78DBB2002B03D0054B00221A7034
:2024C00002E0034B01221A7000BFBD4680BC70473400002080B483B000AF0346FB710B4BF5
:2024E0001B78DBB21946FB791A4652001A44D3011A460B465B000B445B021344044A134451
:2025000018460C37BD4680BC704700BF340000205404002090B484B000AF0023FB73244B72
:202520001B78DBB2002B02D00023FB7301E00123FB730023BB6032E000237B6029E0F97BAF
:202540007B6858001B4CBB681A4652001A44D3011A460B465B000B445B0213442344034415
:2025600000221A70F97B7B685B00581C114CBB681A4652001A44D3011A460B465B000B44CA
:202580005B0213442344034480221A707B6801337B607B68BF2BD2DDBB680133BB60BB68AA
:2025A000032BC9DD00BF1037BD4690BC704700BF3400002054040020F0B488B000AF0346DC
:2025C000FB810B46BB811346FB7200237B7700233B770023FB7600233B830023FB82654B7D
:2025E0001B78DBB2002B02D000233B7701E001233B77B7F90E30002BC0F2B680B7F90E3043
:202600005F2B00F3B180B7F90C30002BC0F2AC80B7F90C300F2B00F3A780BB893B83B7F925
:202620000C30072B04DD0123FB76BB89083B3B833B8B03F00303BB823B8B032B19D8B7F9E0
:202640000E30002B00DA0733DB101BB29BB21B019AB2B7F90E30594203F0070301F0070111
:2026600058BF4B421BB29BB2D31A9BB20733FB8318E0B7F90E30002B00DA0733DB101BB2CD
:202680009BB21B019AB2B7F90E30594203F0070301F0070158BF4B421BB29BB213449BB2A4
:2026A0000833FB83FB7E002B02D1FB7A7B7702E0FB7ADB007B77397FB88AFB8B5D003C7FC7
:2026C000BB8AFA8B56002C4A7A601A4652001A44D3011A4623465B0023445B0213447A6885
:2026E000134433441A787B7F1343DEB2224C024652000244D3011A460B465B000B445B02C0
:20270000134423442B4432461A70397FB88AFB8B5B005D1C3C7FBB8AFA8B5200561C164A8D
:202720007A601A4652001A44D3011A4623465B0023445B0213447A68134433441A787B7F60
:202740001343DBB263F07F03DEB20B4C024652000244D3011A460B465B000B445B02134417
:2027600023442B4432461A7000BF2037BD46F0BC704700BF340000205404002090B58DB0F8
:2027800000AF0446084611461A462346FB800346BB800B46FB701346BB70FB78FB82002380
:2027A000FB8512E0F98DFA8A13469B0013441A46FB8D1344AA4A13441A7807F130030B44BC
:2027C00003F8242CFB8D0133FB85FB8D042BE9D90023FB8567E00023BB855EE0FB8D07F1EE
:2027E0003002134413F8243C1A46BB8D42FA03F303F00103002B4DD000237B8544E0002362
:202800003B8538E097F840309BB2BA8D02FB03F39AB2BB8813449AB23B8D1344BB8297F83D
:2028200040309BB2FA8D02FB03F39AB2FB8813449AB27B8D13447B827A8AB7F944309A428F
:2028400016DB7A8AB7F948309A4211DCBA8AB7F94C309A420CDBBA8AB7F950309A4207DC2C
:20286000B7F91230B7F91410BA781846FFF7A4FE3B8D01333B8597F840309BB23A8D9A42BF
:20288000C0D37B8D01337B8597F840309BB27A8D9A42B4D3BB8D0133BB85BB8D072B9DD907
:2028A000FB8D0133FB85FB8D042B94D997F84030012B40F24D820023FB8545E2FB8D012B0E
:2028C00003D0FB8D032B40F03C820023BB8534E2FB8D07F13002134413F8243C1A46BB8DEC
:2028E00042FA03F303F00103002B00F02382FB8D013B07F13002134413F8243C1A46BB8D97
:2029000042FA03F303F00103002B40F00381FB8D013B07F13002134413F8243C1A46BB8D57
:20292000013B42FA03F303F00103002B6FD0FB8D07F13002134413F8243C1A46BB8D013B70
:2029400042FA03F303F00103002B60D100237B6258E000237B854CE000233B8540E097F8D9
:2029600040309BB2BA8D02FB03F39AB2BB8813449AB23B8D13449AB27B6A9BB2D31ABB8267
:2029800097F840309BB2FA8D02FB03F39AB2FB8813449AB27B8D13449AB27B6A9BB2D31A35
:2029A0007B827A8AB7F944309A4216DB7A8AB7F948309A4211DCBA8AB7F94C309A420CDBFD
:2029C000BA8AB7F950309A4207DCB7F91230B7F91410BA781846FFF7EFFD3B8D01333B85D0
:2029E00097F840309BB23A8D9A42B8D37B8D01337B8597F840309BB27A8D9A42ACD37B6A8E
:202A000001337B6297F840207B6A9A42A1DCFB8D013B07F13002134413F8243C1A46BB8D20
:202A2000013342FA03F303F00103002B72D0FB8D07F13002134413F8243C1A46BB8D01337C
:202A400042FA03F303F00103002B63D100233B625BE000237B854FE000233B8543E000BFDC
:202A6000403F000897F840309BB2BA8D02FB03F39AB2BB8813449AB23B8D13449AB23B6A07
:202A80009BB21344BB8297F840309BB2FA8D02FB03F39AB2FB8813449AB27B8D13449AB272
:202AA0003B6A9BB2D31A7B827A8AB7F944309A4216DB7A8AB7F948309A4211DCBA8AB7F95C
:202AC0004C309A420CDBBA8AB7F950309A4207DCB7F91230B7F91410BA781846FFF76CFDCF
:202AE0003B8D01333B8597F840309BB23A8D9A42B8D37B8D01337B8597F840309BB27A8D11
:202B00009A42A9D33B6A01333B6297F840203B6A9A429EDCFB8D013307F13002134413F8B5
:202B2000243C1A46BB8D42FA03F303F00103002B40F00081FB8D013307F13002134413F840
:202B4000243C1A46BB8D013B42FA03F303F00103002B6FD0FB8D07F13002134413F8243C2A
:202B60001A46BB8D013B42FA03F303F00103002B60D10023FB6158E000237B854CE00023C3
:202B80003B8540E097F840309BB2BA8D02FB03F39AB2BB8813449AB23B8D13449AB2FB69CE
:202BA0009BB2D31ABB8297F840309BB2FA8D02FB03F39AB2FB8813449AB27B8D13449AB2BB
:202BC000FB699BB213447B827A8AB7F944309A4216DB7A8AB7F948309A4211DCBA8AB7F912
:202BE0004C309A420CDBBA8AB7F950309A4207DCB7F91230B7F91410BA781846FFF7DCFC3F
:202C00003B8D01333B8597F840309BB23A8D9A42B8D37B8D01337B8597F840309BB27A8DEF
:202C20009A42ACD3FB690133FB6197F84020FB699A42A1DCFB8D013307F13002134413F851
:202C4000243C1A46BB8D013342FA03F303F00103002B6FD0FB8D07F13002134413F8243C31
:202C60001A46BB8D013342FA03F303F00103002B60D10023BB6158E000237B854CE000230A
:202C80003B8540E097F840309BB2BA8D02FB03F39AB2BB8813449AB23B8D13449AB2BB690D
:202CA0009BB21344BB8297F840309BB2FA8D02FB03F39AB2FB8813449AB27B8D13449AB250
:202CC000BB699BB213447B827A8AB7F944309A4216DB7A8AB7F948309A4211DCBA8AB7F951
:202CE0004C309A420CDBBA8AB7F950309A4207DCB7F91230B7F91410BA781846FFF75CFCBE
:202D00003B8D01333B8597F840309BB23A8D9A42B8D37B8D01337B8597F840309BB27A8DEE
:202D20009A42ACD3BB690133BB6197F84020BB699A42A1DCBB8D0133BB85BB8D072B7FF6AD
:202D4000C7ADFB8D0133FB85FB8D042B7FF6B6AD00BF3437BD4690BD90B589B006AF04463D
:202D6000084611461A462346FB800346BB800B46FB701346BB70BC78FA78B7F90410B7F98C
:202D800006000F230493002303935F230293002301933B7E00932346FFF7F0FC00BF0C3744
:202DA000BD4690BD90B589B002AFBA601A460346FB810B46BB811346FB800023FB8220E054
:202DC00097F82C309BB2FA8A02FB03F39BB21A46520013445B009AB2FB8913449BB218B255
:202DE000FB8ABA6813441A7897F82840B7F90C1097F82C3000932346FFF7AEFFFB8A01333D
:202E0000FB82FA8AFB889A42DAD300BF1C37BD4690BD90B58DB006AFBA601A460346FB81CD
:202E20000B46BB811346FB800023FB82FB88002B43D00023BB822CE097F82C309BB2BA8AE8
:202E400002FB03F39BB21A46520013445B009AB2FB8913449BB218B2BB8ABA6813441A7840
:202E600097F82840B7F90C10B7F93C300493B7F938300393B7F934300293B7F930300193E1
:202E800097F82C3000932346FFF778FCBB8A0133BB82BA8AFB889A42CED397F82C309BB2AF
:202EA000FA8802FB03F39BB21A46520013445B009AB2FB8913449BB2FB82B7F916301846A7
:202EC0001C37BD4690BD80B485B000AF78600B46FB707B68B3F800329BB201335A42C3F310
:202EE0000803C2F3080258BF5342FB817B68B3F802329BB2FA899A420BD07B68B3F80032D7
:202F00009BB219467B68FA785A547B68FA89A3F8002200BF1437BD4680BC704780B485B076
:202F200000AF78607B68B3F800329AB27B68B3F802329BB29A4201D1FF2318E07B68B3F899
:202F400002329BB21A467B689B5CFB737B68B3F802329BB201335A42C3F30803C2F30802E9
:202F600058BF53429AB27B68A3F80222FB7B18461437BD4680BC704780B483B000AF7860B4
:202F80007B689B681B687A6892681268D26842F02002DA6000BF0C37BD4680BC704780B57D
:202FA00084B000AF78607B689B681B681B68BB600023FB73BB6803F02003002B0CD07B689B
:202FC0001A687B689B681B685B68DBB219461046FFF779FF0123FB73FB7B18461037BD46E3
:202FE00080BD80B582B000AF78607B681B681846FFF794FF034618460837BD4680BD80B4FF
:2030000083B000AF78607B681B68B3F800329AB27B681B68B3F802329BB29A4214BF012302
:203020000023DBB218460C37BD4680BC70470000F0B5F3B006AFFDF791F8D44BD44A144638
:203040009E4604F1200C754626460FCE28606960AA60EB6010340EF1100E6445F3D172463B
:2030600023461B8813802123DAB2CA4B1A7000F055FA00F0D7FB00F0B7FB00F0C5FA00F000
:2030800013FB00F0A1FA00F081FBC348FDF7CFFDFFF7F8F90020FFF71DFA0246BF4B1A6080
:2030A000BF4B1B68BE4A1268D26842F48072DA60BC4BBD4A9A62BA48FEF7FDF9BB48FEF776
:2030C00014FA0021B948FEF75FFAB84B1B684FF4E1525A63B048FDF7AAFDFFF71BFAB44A1D
:2030E000B44B03CB106051600723A7F89031B7F8902101230193012300931346AC4A002119
:203100000020FFF74FFEAC4B01221A704FF4FA7000F08CFCFFF7FEF9A74B01221A70A74808
:20312000FFF72AFF0023C7F88C310023A7F8AE31002387F8AD31002387F8AC31002387F88F
:20314000AB3107F5827380220021184600F094FE3B1D80220021184600F08EFE3B1D8033FF
:2031600080220021184600F087FE4EF66023C7F8A4310023C7F8A031002387F89F31002316
:20318000C7F898310023A7F896310023A7F88A310023A7F894310023A7F88831002387F8FD
:2031A0009331002387F89231FDF730F8C7F88C017948FDF73CFD8148FFF721FF0346002B3D
:2031C0002FD07E48FFF70DFF034687F8873197F8AC31002B14D097F887312A2B03D1012399
:2031E00087F892311DE0B7F8AE315A1CA7F8AE2107F5D872134497F8872103F8AC2C10E087
:2032000097F88731242B0CD107F5827380220021184600F031FE0023A7F8AE31012387F8C6
:20322000AC3197F89231002B3BD0002387F8AC3197F8AD313A1DDB01D41807F582731846CF
:20324000FCF784FF024607F582732146184600F023FE0346002B1DD097F8AD31002B08D117
:2032600007F582723B1D80331146184600F00CFE06E007F582723B1D1146184600F004FECF
:20328000012387F8AB3197F89F31002B02D1012387F89F314EF66022D7F88C311344C7F877
:2032A000A431D7F88C21D7F8A4319A42C0F09780002387F89F310023C7F89831D7F88C21DD
:2032C000D7F8A0319A42FFF46CAF97F89331012B27D1FFF71FF92F4B1B789AB210230593BB
:2032E00000230493602303930023029302230193012300931346254A00210020FFF789FD4E
:203300002D4B01221A700023A7F894314FF47A72D7F88C311344C7F8A031022387F89331F7
:203320003FE797F89331022B55D1FFF7F3F8194B1B789AB2B7F994011023059300230493D3
:203340006023039300230293022301930123009313460E4A0021FFF75CFD0346A7F888316A
:20336000154B01221A70B7F988315F2B28DDB7F994319BB2013B9BB2A7F894311922D7F88F
:203380008C311344C7F8A0310BE700BFA0100020E83E00084C04002054100020440400207E
:2033A000401100208011002095390008C4110020201100200C3F00084004002008000020F0
:2033C000012387F893314FF47A72D7F88C311344C7F8A031E5E6012387F89331E1E6D7F81C
:2033E0008C21D7F898319A42FFF4DBAE97F89F31012B45D197F8AB31002B0DD097F8AD31AF
:20340000002B03D1012387F8AD3102E0002387F8AD31002387F8AB31FFF77CF897F8AD3175
:203420003A1DDB01D41897F8AD313A1DDB0113441846FCF78BFE03469AB210230593002319
:203440000493602303930023029302230193012300931346224600210020FFF7DAFC2E4B4D
:2034600001221A700023A7F896314FF47A72D7F88C311344C7F89831022387F89F3190E692
:2034800097F89F31022B7FF48CAEFFF743F897F8AD313A1DDB01D41897F8AD313A1DDB0196
:2034A00013441846FCF752FE03469AB2B7F9960110230593002304936023039300230293E2
:2034C0000223019301230093134622460021FFF7A0FC0346A7F88A310F4B01221A70B7F9AE
:2034E0008A315F2B0DDDB7F996319BB2013B9BB2A7F896311922D7F88C311344C7F8983144
:203500004FE6012387F89F314FF47A72D7F88C311344C7F8983144E64004002080B590B066
:2035200000AF0923BB614FF48033FB6100233B620123BB6201233B6302237B634FF4803386
:20354000BB634FF4E013FB6307F118031846FDF77DFB0346002B04D04FF4DB71184800F0B5
:2035600091FA0F237B600223BB600023FB604FF480633B6100237B613B1D02211846FDF767
:20358000C9FD0346002B04D04FF4E2710C4800F079FAFDF715FF02460A4BA3FB02239B09C4
:2035A0001846FCF75AFF0420FCF764FF002200214FF0FF30FCF727FF00BF4037BD4680BDA7
:2035C000143F0008D34D621080B500AF0B4B0C4A1A600A4B04225A60084B40F271229A60AD
:2035E0000648FDF7EBFA0346002B04D04FF4EE71044800F047FA00BF80BD00BF54100020FE
:2036000000300040143F000880B586B000AF234B234A1A60214B00225A60204B00229A60A1
:203620001E4B0B22DA601D4B00221A611B4B00225A611A4B00229A611848FDF711FF034643
:20364000002B04D040F2F111164800F01BFA4FF48053BB6007F1080319461048FEF78AF971
:203660000346002B04D040F2F7110E4800F00AFA00233B6000237B603B4619460748FEF79E
:2036800046FD0346002B04D04FF4FF71054800F0F9F900BF1837BD4680BD00BF401100203F
:2036A000002C0140143F000880B58EB000AF354B4FF080421A60334B00225A60314B00222D
:2036C0009A60304B48F69F42DA602E4B00221A612C4B00229A612B48FDF7C2FE0346002BD7
:2036E00004D040F21321284800F0CCF94FF48053BB6207F1280319462248FEF73BF90346DA
:20370000002B04D040F219211F4800F0BBF91D48FDF705FF0346002B04D040F21E211A48BB
:2037200000F0B0F920233B6200237B6207F1200319461448FEF7EBFC0346002B04D040F2E4
:203740002521114800F09EF960237B6048F6A043BB600023FB6004237B613B1D002219464F
:203760000848FEF741F80346002B04D040F22E21054800F087F9034800F04EFA00BF383794
:20378000BD4680BDC4110020143F000880B500AF124B134A1A60114B4FF416425A600F4B76
:2037A00000229A600D4B0022DA600C4B00221A610A4B0C225A61094B00229A61074B002222
:2037C000DA610648FEF7F9FC0346002B04D040F24321044800F056F900BF80BD6010002081
:2037E00000380140143F000880B582B000AF0C4A0B4B5B6943F001035361094B5B6903F079
:2038000001037B607B68002204210F20FCF7FBFD0F20FCF714FE00BF0837BD4680BD00BF54
:203820000010024080B588B000AF484A474B9B6943F010039361454B9B6903F01003FB60C3
:20384000FB68424A414B9B6943F0200393613F4B9B6903F02003BB60BB683C4A3B4B9B69AD
:2038600043F004039361394B9B6903F004037B607B68364A354B9B6943F008039361334B26
:203880009B6903F008033B603B6801224FF400512F48FDF77BF90022BF212E48FDF776F977
:2038A00000221F212C48FDF771F94FF400533B6101237B610023BB610323FB6107F11003D6
:2038C00019462348FDF704F84FF440433B6103237B6107F1100319461D48FCF7F9FFBF232E
:2038E0003B6101237B610023BB610323FB6107F1100319461748FCF7EBFF4FF4CA533B61C9
:2039000003237B6107F1100319461248FCF7E0FF1F233B6101237B610023BB610323FB6170
:2039200007F1100319460C48FCF7D2FF4FF6E0733B6103237B6107F1100319460648FCF724
:20394000C7FF00BF2037BD4680BD00BF001002400010014000080140000C014080B500AF6F
:203960000248FFF71CFB00BF80BD00BF0800002080B500AF044B19684FF4C073034A04484A
:20398000FCF706FE00BF80BD440400200C0801408011002080B582B000AF7860144B4FF436
:2039A0007F021A61134B1B680133124A1360032B0CD9104B00221A600F4B1B78DBB2002B78
:2039C00004D0FEF773FD0C4B00221A70094B1B68DBB21846FEF77EFD0246084B1A60084B11
:2039E0004FF480121A6100BF0837BD4680BD00BF00080140480400204004002044040020F9
:203A0000000C014080B582B000AF7860054A064B1B6843F01003D360FFF7AAFF00BF083732
:203A2000BD4680BD000C01404804002080B584B000AF78606423FB601148FDF7F8F87A689C
:203A4000FB689A420DD87868FCF7EAFB10E0F868FCF7E6FB0A48FDF7EAF87A68FB68D31A0C
:203A60007B607A68FB689A42F1D87868FCF7D8FB0348FDF7DCF800BF1037BD4680BD00BFC3
:203A80005410002080B483B000AF78603960FEE780B584B000AF2B4A2A4B9B6943F00103F9
:203AA0009361284B9B6903F00103BB60BB68254A244BDB6943F08053D361224BDB6903F066
:203AC00080537B607B680320FCF792FC002200216FF00B00FCF797FC002200216FF00A00D2
:203AE000FCF791FC002200216FF00900FCF78BFC002201216FF00400FCF785FC00220221C1
:203B00006FF00300FCF77FFC002200216FF00100FCF779FC002200214FF0FF30FCF773FCB7
:203B2000094B5B68FB60FB6823F0E063FB60FB6843F00073FB60044AFB68536000BF103731
:203B4000BD4680BD001002400000014080B584B000AF78607B681B682A4A934235D12A4A79
:203B6000294B9B6943F400639361274B9B6903F40063FB60FB68254B254A1A60234B1022B8
:203B80005A60224B00229A60204B8022DA601F4B00221A611D4B00225A611C4B00229A61CB
:203BA0001A4B4FF40052DA611848FCF78BFC0346002B03D06E211748FFF764FF7B68134A28
:203BC0001A62124A7B68536218E07B681B68B3F1804F13D10C4A0C4BDB6943F00103D36164
:203BE000094BDB6903F00103BB60BB68002205211C20FCF708FC1C20FCF721FC00BF10372B
:203C0000BD4680BD002C0140001002408011002058000240243F000880B588B000AF7860FB
:203C20007B681B68B3F1804F1ED14FF40043FB6002233B610323BB6107F10C0319460C481E
:203C4000FCF746FE0B4B5B68FB61FB6923F44073FB61FB6943F0E063FB61FB6943F480736A
:203C6000FB61044AFB69536000BF2037BD4680BD000801400000014080B588B000AF7860AF
:203C80007B681B681A4A93422DD11A4A194B9B6943F480439361174B9B6903F48043FB6052
:203CA000FB684FF400733B6102237B610323FB6107F1100319461048FCF70AFE4FF48063E9
:203CC0003B6100237B610123BB6107F1100319460948FCF7FDFD002206212520FCF793FB52
:203CE0002520FCF7ACFB00BF2037BD4680BD00BF00380140001002400008014080B400AFD9
:203D000000BFBD4680BC704780B400AFFEE780B400AFFEE780B400AFFEE780B400AFFEE7CE
:203D200080B400AF00BFBD4680BC704780B400AF00BFBD4680BC704780B400AF00BFBD46AE
:203D400080BC704780B500AFFCF74EFAFCF7AEFB00BF80BD80B500AF0248FCF779FC00BF64
:203D600080BD00BF8011002080B500AF0248FDF733FC00BF80BD00BFC411002080B400AFB2
:203D8000154A154B1B6843F0010313601249124B5A68124B13404B600F4A0F4B1B6823F019
:203DA000847323F4803313600B4A0B4B1B6823F480231360084A084B5B6823F4FE03536041
:203DC000054B4FF41F029A60054B4FF000629A6000BFBD4680BC7047001002400000FFF84C
:203DE00000ED00E0002103E00B4B5B58435004310A480B4B42189A42F6D30A4A02E0002321
:203E000042F8043B084B9A42F9D3FFF7B7FF00F00FF8FFF70DF97047E0410008000000208F
:203E2000180000201800002004120020FEE7000070B500250C4E0D4CA41BA410A54209D1C6
:203E400000F03CF800250A4E0A4CA41BA410A54205D170BD56F8253098470135EEE756F833
:203E6000253098470135F2E7D8410008D8410008D8410008DC41000803460244934200D142
:203E8000704703F8011BF9E7034611F8012B03F8012B002AF9D1704710B56AB1013984186E
:203EA00010F8013B11F8012F934203D1A04201D0002BF5D1981A10BD104610BDF8B500BF2A
:203EC000F8BC08BC9E467047F8B500BFF8BC08BC9E46704702030405060708090A0B0C0DF6
:203EE0000E0F1010010200005054204B45524554412041504920494E444F4E45534941202E
:203F0000285045525345524F2900000052657370617469002E2E5C5372635C6D61696E2E49
:203F2000630000002E2E5C5372635C73746D3332663178785F68616C5F6D73702E630000CE
:203F400000000000003E5B4F5B3E3E6B4F6B3E1C3E7C3E1C183C7E3C181C577D571C1C5E0C
:203F60007F5E1C00183C1800FFE7C3E7FF0018241800FFE7DBE7FF30483A060E262979299B
:203F800026407F050507407F05253F5A3CE73C5A7F3E1C1C08081C1C3E7F14227F22145FAC
:203FA0005F005F5F06097F017F006689956A606060606094A2FFA29408047E040810207E59
:203FC000201008082A1C08081C2A08081E101010100C1E0C1E0C30383E3830060E3E0E06C3
:203FE000000000000000005F00000007000700147F147F14242A7F2A12231308646236498E
:020000040800F2
:204000005620500008070300001C2241000041221C002A1C7F1C2A08083E08080080703041
:20402000000808080808000060600020100804023E5149453E00427F40007249494946214A
:2040400041494D331814127F1027454545393C4A494931412111090736494949364649496F
:20406000291E000014000000403400000008142241141414141400412214080201590906A4
:204080003E415D594E7C1211127C7F494949363E414141227F4141413E7F494949417F091A
:2040A0000909013E414151737F0808087F00417F41002040413F017F081422417F40404034
:2040C000407F021C027F7F0408107F3E4141413E7F090909063E4151215E7F091929462604
:2040E0004949493203017F01033F4040403F1F2040201F3F4038403F631408146303047885
:2041000004036159494D43007F4141410204081020004141417F04020102044040404040F6
:20412000000307080020545478407F284444383844444428384444287F385454541800089F
:204140007E090218A4A49C787F0804047800447D40002040403D007F1028440000417F4082
:20416000007C047804787C080404783844444438FC1824241818242418FC7C0804040848C7
:204180005454542404043F44243C4040207C1C2040201C3C4030403C44281028444C9090C4
:2041A000907C4464544C4400083641000000770000004136080008040810083C2623263CDF
:2041C000000000000000000001020304060708090000000001020304310100080D0100085D
:1841E00010000000010000003C020020380000206010002000A24A0480
:00000001FF
